{
  "contractName": "Rating",
  "abi": [
    {
      "inputs": [
        {
          "internalType": "address",
          "name": "_publicKey",
          "type": "address"
        }
      ],
      "payable": false,
      "stateMutability": "nonpayable",
      "type": "constructor"
    },
    {
      "constant": true,
      "inputs": [
        {
          "internalType": "string",
          "name": "",
          "type": "string"
        }
      ],
      "name": "ratedResources",
      "outputs": [
        {
          "internalType": "bool",
          "name": "",
          "type": "bool"
        }
      ],
      "payable": false,
      "stateMutability": "view",
      "type": "function"
    },
    {
      "constant": true,
      "inputs": [
        {
          "internalType": "bytes32",
          "name": "",
          "type": "bytes32"
        },
        {
          "internalType": "string",
          "name": "",
          "type": "string"
        }
      ],
      "name": "ratingsInformation",
      "outputs": [
        {
          "internalType": "bool",
          "name": "",
          "type": "bool"
        }
      ],
      "payable": false,
      "stateMutability": "view",
      "type": "function"
    },
    {
      "constant": true,
      "inputs": [
        {
          "internalType": "uint256",
          "name": "",
          "type": "uint256"
        }
      ],
      "name": "resources",
      "outputs": [
        {
          "internalType": "string",
          "name": "",
          "type": "string"
        }
      ],
      "payable": false,
      "stateMutability": "view",
      "type": "function"
    },
    {
      "constant": true,
      "inputs": [
        {
          "internalType": "string",
          "name": "",
          "type": "string"
        }
      ],
      "name": "resourcesInformation",
      "outputs": [
        {
          "internalType": "uint256",
          "name": "likes",
          "type": "uint256"
        },
        {
          "internalType": "uint256",
          "name": "dislikes",
          "type": "uint256"
        }
      ],
      "payable": false,
      "stateMutability": "view",
      "type": "function"
    },
    {
      "constant": true,
      "inputs": [
        {
          "internalType": "bytes32",
          "name": "",
          "type": "bytes32"
        },
        {
          "internalType": "string",
          "name": "",
          "type": "string"
        }
      ],
      "name": "usersToResources",
      "outputs": [
        {
          "internalType": "bool",
          "name": "",
          "type": "bool"
        }
      ],
      "payable": false,
      "stateMutability": "view",
      "type": "function"
    },
    {
      "constant": false,
      "inputs": [
        {
          "internalType": "bytes32",
          "name": "_cred",
          "type": "bytes32"
        },
        {
          "internalType": "string",
          "name": "_res",
          "type": "string"
        },
        {
          "internalType": "bool",
          "name": "_vote",
          "type": "bool"
        },
        {
          "internalType": "bytes",
          "name": "_sig",
          "type": "bytes"
        }
      ],
      "name": "rate",
      "outputs": [],
      "payable": false,
      "stateMutability": "nonpayable",
      "type": "function"
    },
    {
      "constant": true,
      "inputs": [
        {
          "internalType": "string",
          "name": "_resourceID",
          "type": "string"
        }
      ],
      "name": "getResourceInformation",
      "outputs": [
        {
          "internalType": "uint256",
          "name": "",
          "type": "uint256"
        },
        {
          "internalType": "uint256",
          "name": "",
          "type": "uint256"
        }
      ],
      "payable": false,
      "stateMutability": "view",
      "type": "function"
    },
    {
      "constant": true,
      "inputs": [],
      "name": "getNumberOfRatedResources",
      "outputs": [
        {
          "internalType": "uint256",
          "name": "",
          "type": "uint256"
        }
      ],
      "payable": false,
      "stateMutability": "view",
      "type": "function"
    },
    {
      "constant": true,
      "inputs": [
        {
          "internalType": "uint256",
          "name": "_index",
          "type": "uint256"
        }
      ],
      "name": "getRatedResource",
      "outputs": [
        {
          "internalType": "string",
          "name": "",
          "type": "string"
        }
      ],
      "payable": false,
      "stateMutability": "view",
      "type": "function"
    },
    {
      "constant": true,
      "inputs": [
        {
          "internalType": "bytes32",
          "name": "message",
          "type": "bytes32"
        },
        {
          "internalType": "bytes",
          "name": "sig",
          "type": "bytes"
        }
      ],
      "name": "recoverSigner",
      "outputs": [
        {
          "internalType": "address",
          "name": "",
          "type": "address"
        }
      ],
      "payable": false,
      "stateMutability": "pure",
      "type": "function"
    },
    {
      "constant": true,
      "inputs": [
        {
          "internalType": "bytes",
          "name": "sig",
          "type": "bytes"
        }
      ],
      "name": "splitSignature",
      "outputs": [
        {
          "internalType": "uint8",
          "name": "",
          "type": "uint8"
        },
        {
          "internalType": "bytes32",
          "name": "",
          "type": "bytes32"
        },
        {
          "internalType": "bytes32",
          "name": "",
          "type": "bytes32"
        }
      ],
      "payable": false,
      "stateMutability": "pure",
      "type": "function"
    }
  ],
  "bytecode": "0x608060405234801561001057600080fd5b50604051611b11380380611b118339818101604052602081101561003357600080fd5b8101908080519060200190929190505050806000806101000a81548173ffffffffffffffffffffffffffffffffffffffff021916908373ffffffffffffffffffffffffffffffffffffffff16021790555050611a7d806100946000396000f3fe608060405234801561001057600080fd5b50600436106100a95760003560e01c8063706c87ed11610071578063706c87ed146104825780638e1d240b146105ea57806397aba7f9146106c0578063984ac5e0146107c5578063a51d0ebd146108a2578063a7bb5803146108c0576100a9565b80630c366ad0146100ae5780631a1d2100146101845780631d76b81b14610261578063244d6daa146103345780636177d9f6146103db575b600080fd5b610167600480360360208110156100c457600080fd5b81019080803590602001906401000000008111156100e157600080fd5b8201836020820111156100f357600080fd5b8035906020019184600183028401116401000000008311171561011557600080fd5b91908080601f016020809104026020016040519081016040528093929190818152602001838380828437600081840152601f19601f8201169050808301925050505050505091929192905050506109a3565b604051808381526020018281526020019250505060405180910390f35b6102476004803603604081101561019a57600080fd5b8101908080359060200190929190803590602001906401000000008111156101c157600080fd5b8201836020820111156101d357600080fd5b803590602001918460018302840111640100000000831117156101f557600080fd5b91908080601f016020809104026020016040519081016040528093929190818152602001838380828437600081840152601f19601f8201169050808301925050505050505091929192905050506109dd565b604051808215151515815260200191505060405180910390f35b61031a6004803603602081101561027757600080fd5b810190808035906020019064010000000081111561029457600080fd5b8201836020820111156102a657600080fd5b803590602001918460018302840111640100000000831117156102c857600080fd5b91908080601f016020809104026020016040519081016040528093929190818152602001838380828437600081840152601f19601f820116905080830192505050505050509192919290505050610a22565b604051808215151515815260200191505060405180910390f35b6103606004803603602081101561034a57600080fd5b8101908080359060200190929190505050610a58565b6040518080602001828103825283818151815260200191508051906020019080838360005b838110156103a0578082015181840152602081019050610385565b50505050905090810190601f1680156103cd5780820380516001836020036101000a031916815260200191505b509250505060405180910390f35b610407600480360360208110156103f157600080fd5b8101908080359060200190929190505050610b11565b6040518080602001828103825283818151815260200191508051906020019080838360005b8381101561044757808201518184015260208101905061042c565b50505050905090810190601f1680156104745780820380516001836020036101000a031916815260200191505b509250505060405180910390f35b6105e86004803603608081101561049857600080fd5b8101908080359060200190929190803590602001906401000000008111156104bf57600080fd5b8201836020820111156104d157600080fd5b803590602001918460018302840111640100000000831117156104f357600080fd5b91908080601f016020809104026020016040519081016040528093929190818152602001838380828437600081840152601f19601f8201169050808301925050505050505091929192908035151590602001909291908035906020019064010000000081111561056257600080fd5b82018360208201111561057457600080fd5b8035906020019184600183028401116401000000008311171561059657600080fd5b91908080601f016020809104026020016040519081016040528093929190818152602001838380828437600081840152601f19601f820116905080830192505050505050509192919290505050610bca565b005b6106a36004803603602081101561060057600080fd5b810190808035906020019064010000000081111561061d57600080fd5b82018360208201111561062f57600080fd5b8035906020019184600183028401116401000000008311171561065157600080fd5b91908080601f016020809104026020016040519081016040528093929190818152602001838380828437600081840152601f19601f82011690508083019250505050505050919291929050505061179b565b604051808381526020018281526020019250505060405180910390f35b610783600480360360408110156106d657600080fd5b8101908080359060200190929190803590602001906401000000008111156106fd57600080fd5b82018360208201111561070f57600080fd5b8035906020019184600183028401116401000000008311171561073157600080fd5b91908080601f016020809104026020016040519081016040528093929190818152602001838380828437600081840152601f19601f820116905080830192505050505050509192919290505050611881565b604051808273ffffffffffffffffffffffffffffffffffffffff1673ffffffffffffffffffffffffffffffffffffffff16815260200191505060405180910390f35b610888600480360360408110156107db57600080fd5b81019080803590602001909291908035906020019064010000000081111561080257600080fd5b82018360208201111561081457600080fd5b8035906020019184600183028401116401000000008311171561083657600080fd5b91908080601f016020809104026020016040519081016040528093929190818152602001838380828437600081840152601f19601f82011690508083019250505050505050919291929050505061190e565b604051808215151515815260200191505060405180910390f35b6108aa611953565b6040518082815260200191505060405180910390f35b610979600480360360208110156108d657600080fd5b81019080803590602001906401000000008111156108f357600080fd5b82018360208201111561090557600080fd5b8035906020019184600183028401116401000000008311171561092757600080fd5b91908080601f016020809104026020016040519081016040528093929190818152602001838380828437600081840152601f19601f820116905080830192505050505050509192919290505050611960565b604051808460ff1660ff168152602001838152602001828152602001935050505060405180910390f35b6002818051602081018201805184825260208301602085012081835280955050505050506000915090508060000154908060010154905082565b6005602052816000526040600020818051602081018201805184825260208301602085012081835280955050505050506000915091509054906101000a900460ff1681565b6003818051602081018201805184825260208301602085012081835280955050505050506000915054906101000a900460ff1681565b60018181548110610a6557fe5b906000526020600020016000915090508054600181600116156101000203166002900480601f016020809104026020016040519081016040528092919081815260200182805460018160011615610100020316600290048015610b095780601f10610ade57610100808354040283529160200191610b09565b820191906000526020600020905b815481529060010190602001808311610aec57829003601f168201915b505050505081565b606060018281548110610b2057fe5b906000526020600020018054600181600116156101000203166002900480601f016020809104026020016040519081016040528092919081815260200182805460018160011615610100020316600290048015610bbe5780601f10610b9357610100808354040283529160200191610bbe565b820191906000526020600020905b815481529060010190602001808311610ba157829003601f168201915b50505050509050919050565b83816000809054906101000a900473ffffffffffffffffffffffffffffffffffffffff1673ffffffffffffffffffffffffffffffffffffffff16610c3483604051602001808281526020019150506040516020818303038152906040528051906020012083611881565b73ffffffffffffffffffffffffffffffffffffffff1614610cbd576040517f08c379a00000000000000000000000000000000000000000000000000000000081526004018080602001828103825260148152602001807f496e76616c69642063726564656e7469616c732e00000000000000000000000081525060200191505060405180910390fd5b6001151560056000888152602001908152602001600020866040518082805190602001908083835b60208310610d085780518252602082019150602081019050602083039250610ce5565b6001836020036101000a038019825116818451168082178552505050505050905001915050908152602001604051809103902060009054906101000a900460ff16151514156111b2576001151560046000888152602001908152602001600020866040518082805190602001908083835b60208310610d9c5780518252602082019150602081019050602083039250610d79565b6001836020036101000a038019825116818451168082178552505050505050905001915050908152602001604051809103902060009054906101000a900460ff161515148015610df0575060001515841515145b15610f7f57600060046000888152602001908152602001600020866040518082805190602001908083835b60208310610e3e5780518252602082019150602081019050602083039250610e1b565b6001836020036101000a038019825116818451168082178552505050505050905001915050908152602001604051809103902060006101000a81548160ff02191690831515021790555060016002866040518082805190602001908083835b60208310610ec05780518252602082019150602081019050602083039250610e9d565b6001836020036101000a03801982511681845116808217855250505050505090500191505090815260200160405180910390206000016000828254039250508190555060016002866040518082805190602001908083835b60208310610f3b5780518252602082019150602081019050602083039250610f18565b6001836020036101000a0380198251168184511680821785525050505050509050019150509081526020016040518091039020600101600082825401925050819055505b6000151560046000888152602001908152602001600020866040518082805190602001908083835b60208310610fca5780518252602082019150602081019050602083039250610fa7565b6001836020036101000a038019825116818451168082178552505050505050905001915050908152602001604051809103902060009054906101000a900460ff16151514801561101e575060011515841515145b156111ad57600160046000888152602001908152602001600020866040518082805190602001908083835b6020831061106c5780518252602082019150602081019050602083039250611049565b6001836020036101000a038019825116818451168082178552505050505050905001915050908152602001604051809103902060006101000a81548160ff02191690831515021790555060016002866040518082805190602001908083835b602083106110ee57805182526020820191506020810190506020830392506110cb565b6001836020036101000a03801982511681845116808217855250505050505090500191505090815260200160405180910390206000016000828254019250508190555060016002866040518082805190602001908083835b602083106111695780518252602082019150602081019050602083039250611146565b6001836020036101000a0380198251168184511680821785525050505050509050019150509081526020016040518091039020600101600082825403925050819055505b611793565b600015156003866040518082805190602001908083835b602083106111ec57805182526020820191506020810190506020830392506111c9565b6001836020036101000a038019825116818451168082178552505050505050905001915050908152602001604051809103902060009054906101000a900460ff16151514156115f55760016003866040518082805190602001908083835b6020831061126d578051825260208201915060208101905060208303925061124a565b6001836020036101000a038019825116818451168082178552505050505050905001915050908152602001604051809103902060006101000a81548160ff02191690831515021790555060018590806001815401808255809150509060018203906000526020600020016000909192909190915090805190602001906112f49291906119a3565b5050600160056000888152602001908152602001600020866040518082805190602001908083835b6020831061133f578051825260208201915060208101905060208303925061131c565b6001836020036101000a038019825116818451168082178552505050505050905001915050908152602001604051809103902060006101000a81548160ff0219169083151502179055506001151584151514156114c55760405180604001604052806001815260200160008152506002866040518082805190602001908083835b602083106113e357805182526020820191506020810190506020830392506113c0565b6001836020036101000a03801982511681845116808217855250505050505090500191505090815260200160405180910390206000820151816000015560208201518160010155905050600160046000888152602001908152602001600020866040518082805190602001908083835b602083106114765780518252602082019150602081019050602083039250611453565b6001836020036101000a038019825116818451168082178552505050505050905001915050908152602001604051809103902060006101000a81548160ff0219169083151502179055506115f0565b60405180604001604052806000815260200160018152506002866040518082805190602001908083835b6020831061151257805182526020820191506020810190506020830392506114ef565b6001836020036101000a03801982511681845116808217855250505050505090500191505090815260200160405180910390206000820151816000015560208201518160010155905050600060046000888152602001908152602001600020866040518082805190602001908083835b602083106115a55780518252602082019150602081019050602083039250611582565b6001836020036101000a038019825116818451168082178552505050505050905001915050908152602001604051809103902060006101000a81548160ff0219169083151502179055505b611792565b600160056000888152602001908152602001600020866040518082805190602001908083835b6020831061163e578051825260208201915060208101905060208303925061161b565b6001836020036101000a038019825116818451168082178552505050505050905001915050908152602001604051809103902060006101000a81548160ff0219169083151502179055506001151584151514156117155760016002866040518082805190602001908083835b602083106116cd57805182526020820191506020810190506020830392506116aa565b6001836020036101000a038019825116818451168082178552505050505050905001915050908152602001604051809103902060000160008282540192505081905550611791565b60016002866040518082805190602001908083835b6020831061174d578051825260208201915060208101905060208303925061172a565b6001836020036101000a0380198251168184511680821785525050505050509050019150509081526020016040518091039020600101600082825401925050819055505b5b5b505050505050565b6000806002836040518082805190602001908083835b602083106117d457805182526020820191506020810190506020830392506117b1565b6001836020036101000a0380198251168184511680821785525050505050509050019150509081526020016040518091039020600001546002846040518082805190602001908083835b60208310611841578051825260208201915060208101905060208303925061181e565b6001836020036101000a03801982511681845116808217855250505050505090500191505090815260200160405180910390206001015491509150915091565b60008060008061189085611960565b80935081945082955050505060018684848460405160008152602001604052604051808581526020018460ff1660ff1681526020018381526020018281526020019450505050506020604051602081039080840390855afa1580156118f9573d6000803e3d6000fd5b50505060206040510351935050505092915050565b6004602052816000526040600020818051602081018201805184825260208301602085012081835280955050505050506000915091509054906101000a900460ff1681565b6000600180549050905090565b6000806000604184511461197357600080fd5b60008060006020870151925060408701519150606087015160001a90508083839550955095505050509193909250565b828054600181600116156101000203166002900490600052602060002090601f016020900481019282601f106119e457805160ff1916838001178555611a12565b82800160010185558215611a12579182015b82811115611a115782518255916020019190600101906119f6565b5b509050611a1f9190611a23565b5090565b611a4591905b80821115611a41576000816000905550600101611a29565b5090565b9056fea265627a7a723158209b9be6921ac3101e9d9025ab86197bb6f8ab4983d4d490449fd3f4be7a99c01164736f6c63430005100032",
  "source": "pragma solidity 0.5.16;\r\n\r\ncontract Rating {\r\n    \r\n    address publicKey;\r\n    constructor(address _publicKey) public { publicKey = _publicKey; }\r\n    \r\n    struct resourceRating {\r\n        uint256 likes;\r\n        uint256 dislikes;\r\n    }\r\n\r\n    string[] public resources;\r\n    mapping(string => resourceRating) public resourcesInformation;\r\n    mapping(string => bool) public ratedResources;\r\n    mapping(bytes32 => mapping(string => bool)) public ratingsInformation;\r\n    mapping(bytes32 => mapping(string => bool)) public usersToResources;\r\n    \r\n    modifier validCredentials(bytes32 _cred, bytes memory sig) {\r\n        require(recoverSigner(keccak256(abi.encodePacked(_cred)), sig) == publicKey, 'Invalid credentials.');\r\n        _;\r\n    }\r\n\r\n    function rate(\r\n        bytes32 _cred,\r\n        string memory _res,\r\n        bool _vote, \r\n        bytes memory _sig\r\n    ) \r\n        public\r\n        validCredentials(_cred, _sig)\r\n    {\r\n        if (usersToResources[_cred][_res] == true) {\r\n            if (\r\n                ratingsInformation[_cred][_res] == true &&\r\n                _vote == false\r\n            ) {\r\n                ratingsInformation[_cred][_res] = false;\r\n                resourcesInformation[_res].likes -= 1;\r\n                resourcesInformation[_res].dislikes += 1;\r\n            }\r\n            if (\r\n                ratingsInformation[_cred][_res] == false &&\r\n                _vote == true\r\n            ) {\r\n                ratingsInformation[_cred][_res] = true;\r\n                resourcesInformation[_res].likes += 1;\r\n                resourcesInformation[_res].dislikes -= 1;\r\n            }\r\n        } else {\r\n            if (ratedResources[_res] == false) {\r\n                ratedResources[_res] = true;\r\n                resources.push(_res);\r\n                usersToResources[_cred][_res] = true;\r\n                if (_vote == true) {\r\n                    resourcesInformation[_res] = resourceRating(1, 0);\r\n                    ratingsInformation[_cred][_res] = true;\r\n                } else {\r\n                    resourcesInformation[_res] = resourceRating(0, 1);\r\n                    ratingsInformation[_cred][_res] = false;\r\n                }\r\n            } else {\r\n                usersToResources[_cred][_res] = true;\r\n                if (_vote == true) {\r\n                    resourcesInformation[_res].likes += 1;\r\n                } else {\r\n                    resourcesInformation[_res].dislikes += 1;\r\n                }\r\n            }\r\n        }\r\n    }\r\n\r\n    function getResourceInformation(string memory _resourceID)\r\n        public\r\n        view\r\n        returns (uint256, uint256)\r\n    {\r\n        return (\r\n            resourcesInformation[_resourceID].likes,\r\n            resourcesInformation[_resourceID].dislikes\r\n        );\r\n    }\r\n\r\n    function getNumberOfRatedResources() public view returns (uint256) {\r\n        return resources.length;\r\n    }\r\n\r\n    function getRatedResource(uint256 _index)\r\n        public\r\n        view\r\n        returns (string memory)\r\n    {\r\n        return resources[_index];\r\n    }\r\n    \r\n    function recoverSigner(bytes32 message, bytes memory sig)\r\n       public\r\n       pure\r\n       returns (address)\r\n    {\r\n       uint8 v;\r\n       bytes32 r;\r\n       bytes32 s;\r\n       (v, r, s) = splitSignature(sig);\r\n       return ecrecover(message, v, r, s);\r\n    }\r\n    \r\n    function splitSignature(bytes memory sig)\r\n       public\r\n       pure\r\n       returns (uint8, bytes32, bytes32)\r\n    {\r\n       require(sig.length == 65);\r\n       bytes32 r;\r\n       bytes32 s;\r\n       uint8 v;\r\n       assembly {\r\n           r := mload(add(sig, 32))\r\n           s := mload(add(sig, 64))\r\n           v := byte(0, mload(add(sig, 96)))\r\n       }\r\n       return (v, r, s);\r\n    }\r\n}",
  "sourcePath": "E:\\DApp-For-Rating\\contracts\\Rating.sol",
  "compiler": {
    "name": "solc",
    "version": "0.5.16+commit.9c3226ce.Emscripten.clang"
  },
  "schemaVersion": "3.2.0",
  "updatedAt": "2021-04-13T09:37:52.437Z",
  "networkType": "ethereum",
  "devdoc": {
    "methods": {}
  },
  "userdoc": {
    "methods": {}
  }
}