{
  "contractName": "Rating",
  "abi": [
    {
      "inputs": [],
      "payable": false,
      "stateMutability": "nonpayable",
      "type": "constructor"
    },
    {
      "constant": true,
      "inputs": [
        {
          "internalType": "string",
          "name": "",
          "type": "string"
        }
      ],
      "name": "ratedResources",
      "outputs": [
        {
          "internalType": "bool",
          "name": "",
          "type": "bool"
        }
      ],
      "payable": false,
      "stateMutability": "view",
      "type": "function"
    },
    {
      "constant": true,
      "inputs": [
        {
          "internalType": "bytes32",
          "name": "",
          "type": "bytes32"
        },
        {
          "internalType": "string",
          "name": "",
          "type": "string"
        }
      ],
      "name": "ratingsInformation",
      "outputs": [
        {
          "internalType": "bool",
          "name": "",
          "type": "bool"
        }
      ],
      "payable": false,
      "stateMutability": "view",
      "type": "function"
    },
    {
      "constant": true,
      "inputs": [
        {
          "internalType": "uint256",
          "name": "",
          "type": "uint256"
        }
      ],
      "name": "resources",
      "outputs": [
        {
          "internalType": "string",
          "name": "",
          "type": "string"
        }
      ],
      "payable": false,
      "stateMutability": "view",
      "type": "function"
    },
    {
      "constant": true,
      "inputs": [
        {
          "internalType": "string",
          "name": "",
          "type": "string"
        }
      ],
      "name": "resourcesInformation",
      "outputs": [
        {
          "internalType": "uint256",
          "name": "likes",
          "type": "uint256"
        },
        {
          "internalType": "uint256",
          "name": "dislikes",
          "type": "uint256"
        }
      ],
      "payable": false,
      "stateMutability": "view",
      "type": "function"
    },
    {
      "constant": true,
      "inputs": [
        {
          "internalType": "bytes32",
          "name": "",
          "type": "bytes32"
        },
        {
          "internalType": "string",
          "name": "",
          "type": "string"
        }
      ],
      "name": "usersToResources",
      "outputs": [
        {
          "internalType": "bool",
          "name": "",
          "type": "bool"
        }
      ],
      "payable": false,
      "stateMutability": "view",
      "type": "function"
    },
    {
      "constant": false,
      "inputs": [
        {
          "internalType": "bytes32",
          "name": "_cred",
          "type": "bytes32"
        },
        {
          "internalType": "string",
          "name": "_res",
          "type": "string"
        },
        {
          "internalType": "bool",
          "name": "_vote",
          "type": "bool"
        }
      ],
      "name": "rate",
      "outputs": [],
      "payable": false,
      "stateMutability": "nonpayable",
      "type": "function"
    },
    {
      "constant": true,
      "inputs": [
        {
          "internalType": "string",
          "name": "_resourceID",
          "type": "string"
        }
      ],
      "name": "getResourceInformation",
      "outputs": [
        {
          "internalType": "uint256",
          "name": "",
          "type": "uint256"
        },
        {
          "internalType": "uint256",
          "name": "",
          "type": "uint256"
        }
      ],
      "payable": false,
      "stateMutability": "view",
      "type": "function"
    },
    {
      "constant": true,
      "inputs": [],
      "name": "getNumberOfRatedResources",
      "outputs": [
        {
          "internalType": "uint256",
          "name": "",
          "type": "uint256"
        }
      ],
      "payable": false,
      "stateMutability": "view",
      "type": "function"
    },
    {
      "constant": true,
      "inputs": [
        {
          "internalType": "uint256",
          "name": "_index",
          "type": "uint256"
        }
      ],
      "name": "getRatedResource",
      "outputs": [
        {
          "internalType": "string",
          "name": "",
          "type": "string"
        }
      ],
      "payable": false,
      "stateMutability": "view",
      "type": "function"
    }
  ],
  "bytecode": "0x608060405234801561001057600080fd5b50336000806101000a81548173ffffffffffffffffffffffffffffffffffffffff021916908373ffffffffffffffffffffffffffffffffffffffff1602179055506116ed806100606000396000f3fe608060405234801561001057600080fd5b50600436106100935760003560e01c80632a7f70b2116100665780632a7f70b2146103c55780636177d9f6146104965780638e1d240b1461053d578063984ac5e014610613578063a51d0ebd146106f057610093565b80630c366ad0146100985780631a1d21001461016e5780631d76b81b1461024b578063244d6daa1461031e575b600080fd5b610151600480360360208110156100ae57600080fd5b81019080803590602001906401000000008111156100cb57600080fd5b8201836020820111156100dd57600080fd5b803590602001918460018302840111640100000000831117156100ff57600080fd5b91908080601f016020809104026020016040519081016040528093929190818152602001838380828437600081840152601f19601f82011690508083019250505050505050919291929050505061070e565b604051808381526020018281526020019250505060405180910390f35b6102316004803603604081101561018457600080fd5b8101908080359060200190929190803590602001906401000000008111156101ab57600080fd5b8201836020820111156101bd57600080fd5b803590602001918460018302840111640100000000831117156101df57600080fd5b91908080601f016020809104026020016040519081016040528093929190818152602001838380828437600081840152601f19601f820116905080830192505050505050509192919290505050610748565b604051808215151515815260200191505060405180910390f35b6103046004803603602081101561026157600080fd5b810190808035906020019064010000000081111561027e57600080fd5b82018360208201111561029057600080fd5b803590602001918460018302840111640100000000831117156102b257600080fd5b91908080601f016020809104026020016040519081016040528093929190818152602001838380828437600081840152601f19601f82011690508083019250505050505050919291929050505061078d565b604051808215151515815260200191505060405180910390f35b61034a6004803603602081101561033457600080fd5b81019080803590602001909291905050506107c3565b6040518080602001828103825283818151815260200191508051906020019080838360005b8381101561038a57808201518184015260208101905061036f565b50505050905090810190601f1680156103b75780820380516001836020036101000a031916815260200191505b509250505060405180910390f35b610494600480360360608110156103db57600080fd5b81019080803590602001909291908035906020019064010000000081111561040257600080fd5b82018360208201111561041457600080fd5b8035906020019184600183028401116401000000008311171561043657600080fd5b91908080601f016020809104026020016040519081016040528093929190818152602001838380828437600081840152601f19601f82011690508083019250505050505050919291929080351515906020019092919050505061087c565b005b6104c2600480360360208110156104ac57600080fd5b81019080803590602001909291905050506113fc565b6040518080602001828103825283818151815260200191508051906020019080838360005b838110156105025780820151818401526020810190506104e7565b50505050905090810190601f16801561052f5780820380516001836020036101000a031916815260200191505b509250505060405180910390f35b6105f66004803603602081101561055357600080fd5b810190808035906020019064010000000081111561057057600080fd5b82018360208201111561058257600080fd5b803590602001918460018302840111640100000000831117156105a457600080fd5b91908080601f016020809104026020016040519081016040528093929190818152602001838380828437600081840152601f19601f8201169050808301925050505050505091929192905050506114b5565b604051808381526020018281526020019250505060405180910390f35b6106d66004803603604081101561062957600080fd5b81019080803590602001909291908035906020019064010000000081111561065057600080fd5b82018360208201111561066257600080fd5b8035906020019184600183028401116401000000008311171561068457600080fd5b91908080601f016020809104026020016040519081016040528093929190818152602001838380828437600081840152601f19601f82011690508083019250505050505050919291929050505061159b565b604051808215151515815260200191505060405180910390f35b6106f86115e0565b6040518082815260200191505060405180910390f35b6002818051602081018201805184825260208301602085012081835280955050505050506000915090508060000154908060010154905082565b6005602052816000526040600020818051602081018201805184825260208301602085012081835280955050505050506000915091509054906101000a900460ff1681565b6003818051602081018201805184825260208301602085012081835280955050505050506000915054906101000a900460ff1681565b600181815481106107d057fe5b906000526020600020016000915090508054600181600116156101000203166002900480601f0160208091040260200160405190810160405280929190818152602001828054600181600116156101000203166002900480156108745780601f1061084957610100808354040283529160200191610874565b820191906000526020600020905b81548152906001019060200180831161085757829003601f168201915b505050505081565b6000809054906101000a900473ffffffffffffffffffffffffffffffffffffffff1673ffffffffffffffffffffffffffffffffffffffff163373ffffffffffffffffffffffffffffffffffffffff1614610921576040517f08c379a00000000000000000000000000000000000000000000000000000000081526004018080602001828103825260268152602001806116936026913960400191505060405180910390fd5b6001151560056000858152602001908152602001600020836040518082805190602001908083835b6020831061096c5780518252602082019150602081019050602083039250610949565b6001836020036101000a038019825116818451168082178552505050505050905001915050908152602001604051809103902060009054906101000a900460ff1615151415610e16576001151560046000858152602001908152602001600020836040518082805190602001908083835b60208310610a0057805182526020820191506020810190506020830392506109dd565b6001836020036101000a038019825116818451168082178552505050505050905001915050908152602001604051809103902060009054906101000a900460ff161515148015610a54575060001515811515145b15610be357600060046000858152602001908152602001600020836040518082805190602001908083835b60208310610aa25780518252602082019150602081019050602083039250610a7f565b6001836020036101000a038019825116818451168082178552505050505050905001915050908152602001604051809103902060006101000a81548160ff02191690831515021790555060016002836040518082805190602001908083835b60208310610b245780518252602082019150602081019050602083039250610b01565b6001836020036101000a03801982511681845116808217855250505050505090500191505090815260200160405180910390206000016000828254039250508190555060016002836040518082805190602001908083835b60208310610b9f5780518252602082019150602081019050602083039250610b7c565b6001836020036101000a0380198251168184511680821785525050505050509050019150509081526020016040518091039020600101600082825401925050819055505b6000151560046000858152602001908152602001600020836040518082805190602001908083835b60208310610c2e5780518252602082019150602081019050602083039250610c0b565b6001836020036101000a038019825116818451168082178552505050505050905001915050908152602001604051809103902060009054906101000a900460ff161515148015610c82575060011515811515145b15610e1157600160046000858152602001908152602001600020836040518082805190602001908083835b60208310610cd05780518252602082019150602081019050602083039250610cad565b6001836020036101000a038019825116818451168082178552505050505050905001915050908152602001604051809103902060006101000a81548160ff02191690831515021790555060016002836040518082805190602001908083835b60208310610d525780518252602082019150602081019050602083039250610d2f565b6001836020036101000a03801982511681845116808217855250505050505090500191505090815260200160405180910390206000016000828254019250508190555060016002836040518082805190602001908083835b60208310610dcd5780518252602082019150602081019050602083039250610daa565b6001836020036101000a0380198251168184511680821785525050505050509050019150509081526020016040518091039020600101600082825403925050819055505b6113f7565b600015156003836040518082805190602001908083835b60208310610e505780518252602082019150602081019050602083039250610e2d565b6001836020036101000a038019825116818451168082178552505050505050905001915050908152602001604051809103902060009054906101000a900460ff16151514156112595760016003836040518082805190602001908083835b60208310610ed15780518252602082019150602081019050602083039250610eae565b6001836020036101000a038019825116818451168082178552505050505050905001915050908152602001604051809103902060006101000a81548160ff0219169083151502179055506001829080600181540180825580915050906001820390600052602060002001600090919290919091509080519060200190610f589291906115ed565b5050600160056000858152602001908152602001600020836040518082805190602001908083835b60208310610fa35780518252602082019150602081019050602083039250610f80565b6001836020036101000a038019825116818451168082178552505050505050905001915050908152602001604051809103902060006101000a81548160ff0219169083151502179055506001151581151514156111295760405180604001604052806001815260200160008152506002836040518082805190602001908083835b602083106110475780518252602082019150602081019050602083039250611024565b6001836020036101000a03801982511681845116808217855250505050505090500191505090815260200160405180910390206000820151816000015560208201518160010155905050600160046000858152602001908152602001600020836040518082805190602001908083835b602083106110da57805182526020820191506020810190506020830392506110b7565b6001836020036101000a038019825116818451168082178552505050505050905001915050908152602001604051809103902060006101000a81548160ff021916908315150217905550611254565b60405180604001604052806000815260200160018152506002836040518082805190602001908083835b602083106111765780518252602082019150602081019050602083039250611153565b6001836020036101000a03801982511681845116808217855250505050505090500191505090815260200160405180910390206000820151816000015560208201518160010155905050600060046000858152602001908152602001600020836040518082805190602001908083835b6020831061120957805182526020820191506020810190506020830392506111e6565b6001836020036101000a038019825116818451168082178552505050505050905001915050908152602001604051809103902060006101000a81548160ff0219169083151502179055505b6113f6565b600160056000858152602001908152602001600020836040518082805190602001908083835b602083106112a2578051825260208201915060208101905060208303925061127f565b6001836020036101000a038019825116818451168082178552505050505050905001915050908152602001604051809103902060006101000a81548160ff0219169083151502179055506001151581151514156113795760016002836040518082805190602001908083835b60208310611331578051825260208201915060208101905060208303925061130e565b6001836020036101000a0380198251168184511680821785525050505050509050019150509081526020016040518091039020600001600082825401925050819055506113f5565b60016002836040518082805190602001908083835b602083106113b1578051825260208201915060208101905060208303925061138e565b6001836020036101000a0380198251168184511680821785525050505050509050019150509081526020016040518091039020600101600082825401925050819055505b5b5b505050565b60606001828154811061140b57fe5b906000526020600020018054600181600116156101000203166002900480601f0160208091040260200160405190810160405280929190818152602001828054600181600116156101000203166002900480156114a95780601f1061147e576101008083540402835291602001916114a9565b820191906000526020600020905b81548152906001019060200180831161148c57829003601f168201915b50505050509050919050565b6000806002836040518082805190602001908083835b602083106114ee57805182526020820191506020810190506020830392506114cb565b6001836020036101000a0380198251168184511680821785525050505050509050019150509081526020016040518091039020600001546002846040518082805190602001908083835b6020831061155b5780518252602082019150602081019050602083039250611538565b6001836020036101000a03801982511681845116808217855250505050505090500191505090815260200160405180910390206001015491509150915091565b6004602052816000526040600020818051602081018201805184825260208301602085012081835280955050505050506000915091509054906101000a900460ff1681565b6000600180549050905090565b828054600181600116156101000203166002900490600052602060002090601f016020900481019282601f1061162e57805160ff191683800117855561165c565b8280016001018555821561165c579182015b8281111561165b578251825591602001919060010190611640565b5b509050611669919061166d565b5090565b61168f91905b8082111561168b576000816000905550600101611673565b5090565b9056fe4f6e6c7920746865206f776e65722063616e2063616c6c20746869732066756e6374696f6e2ea265627a7a723158200e399c6fc39cfc5714ebbe75161fde6225febf360e9b2cf14b6f9f042781997164736f6c63430005100032",
  "source": "pragma solidity 0.5.16;\r\n\r\ncontract Rating {\r\n    \r\n    address payable owner;\r\n    constructor() public { owner = msg.sender; }\r\n    \r\n    modifier onlyOwner {\r\n        require(msg.sender == owner, \"Only the owner can call this function.\");\r\n        _;\r\n    }\r\n    \r\n    struct resourceRating {\r\n        uint256 likes;\r\n        uint256 dislikes;\r\n    }\r\n\r\n    string[] public resources;\r\n    mapping(string => resourceRating) public resourcesInformation;\r\n    mapping(string => bool) public ratedResources;\r\n    mapping(bytes32 => mapping(string => bool)) public ratingsInformation;\r\n    mapping(bytes32 => mapping(string => bool)) public usersToResources;\r\n\r\n    function rate(\r\n        bytes32 _cred,\r\n        string memory _res,\r\n        bool _vote\r\n    ) \r\n        public\r\n        onlyOwner\r\n    {\r\n        if (usersToResources[_cred][_res] == true) {\r\n            if (\r\n                ratingsInformation[_cred][_res] == true &&\r\n                _vote == false\r\n            ) {\r\n                ratingsInformation[_cred][_res] = false;\r\n                resourcesInformation[_res].likes -= 1;\r\n                resourcesInformation[_res].dislikes += 1;\r\n            }\r\n            if (\r\n                ratingsInformation[_cred][_res] == false &&\r\n                _vote == true\r\n            ) {\r\n                ratingsInformation[_cred][_res] = true;\r\n                resourcesInformation[_res].likes += 1;\r\n                resourcesInformation[_res].dislikes -= 1;\r\n            }\r\n        } else {\r\n            if (ratedResources[_res] == false) {\r\n                ratedResources[_res] = true;\r\n                resources.push(_res);\r\n                usersToResources[_cred][_res] = true;\r\n                if (_vote == true) {\r\n                    resourcesInformation[_res] = resourceRating(1, 0);\r\n                    ratingsInformation[_cred][_res] = true;\r\n                } else {\r\n                    resourcesInformation[_res] = resourceRating(0, 1);\r\n                    ratingsInformation[_cred][_res] = false;\r\n                }\r\n            } else {\r\n                usersToResources[_cred][_res] = true;\r\n                if (_vote == true) {\r\n                    resourcesInformation[_res].likes += 1;\r\n                } else {\r\n                    resourcesInformation[_res].dislikes += 1;\r\n                }\r\n            }\r\n        }\r\n    }\r\n\r\n    function getResourceInformation(string memory _resourceID)\r\n        public\r\n        view\r\n        returns (uint256, uint256)\r\n    {\r\n        return (\r\n            resourcesInformation[_resourceID].likes,\r\n            resourcesInformation[_resourceID].dislikes\r\n        );\r\n    }\r\n\r\n    function getNumberOfRatedResources() public view returns (uint256) {\r\n        return resources.length;\r\n    }\r\n\r\n    function getRatedResource(uint256 _index)\r\n        public\r\n        view\r\n        returns (string memory)\r\n    {\r\n        return resources[_index];\r\n    }\r\n}",
  "sourcePath": "E:\\DApp-For-Rating\\contracts\\Rating.sol",
  "compiler": {
    "name": "solc",
    "version": "0.5.16+commit.9c3226ce.Emscripten.clang"
  },
  "schemaVersion": "3.2.0",
  "updatedAt": "2021-04-08T13:32:28.196Z",
  "networkType": "ethereum",
  "devdoc": {
    "methods": {}
  },
  "userdoc": {
    "methods": {}
  }
}