{
  "contractName": "Rating",
  "abi": [
    {
      "constant": true,
      "inputs": [
        {
          "internalType": "string",
          "name": "",
          "type": "string"
        }
      ],
      "name": "ratedResources",
      "outputs": [
        {
          "internalType": "bool",
          "name": "",
          "type": "bool"
        }
      ],
      "payable": false,
      "stateMutability": "view",
      "type": "function"
    },
    {
      "constant": true,
      "inputs": [
        {
          "internalType": "bytes32",
          "name": "",
          "type": "bytes32"
        },
        {
          "internalType": "string",
          "name": "",
          "type": "string"
        }
      ],
      "name": "ratingsInformation",
      "outputs": [
        {
          "internalType": "bool",
          "name": "",
          "type": "bool"
        }
      ],
      "payable": false,
      "stateMutability": "view",
      "type": "function"
    },
    {
      "constant": true,
      "inputs": [
        {
          "internalType": "uint256",
          "name": "",
          "type": "uint256"
        }
      ],
      "name": "resources",
      "outputs": [
        {
          "internalType": "string",
          "name": "",
          "type": "string"
        }
      ],
      "payable": false,
      "stateMutability": "view",
      "type": "function"
    },
    {
      "constant": true,
      "inputs": [
        {
          "internalType": "string",
          "name": "",
          "type": "string"
        }
      ],
      "name": "resourcesInformation",
      "outputs": [
        {
          "internalType": "uint256",
          "name": "likes",
          "type": "uint256"
        },
        {
          "internalType": "uint256",
          "name": "dislikes",
          "type": "uint256"
        }
      ],
      "payable": false,
      "stateMutability": "view",
      "type": "function"
    },
    {
      "constant": true,
      "inputs": [
        {
          "internalType": "bytes32",
          "name": "",
          "type": "bytes32"
        },
        {
          "internalType": "string",
          "name": "",
          "type": "string"
        }
      ],
      "name": "usersToResources",
      "outputs": [
        {
          "internalType": "bool",
          "name": "",
          "type": "bool"
        }
      ],
      "payable": false,
      "stateMutability": "view",
      "type": "function"
    },
    {
      "constant": false,
      "inputs": [
        {
          "internalType": "bytes32",
          "name": "_cred",
          "type": "bytes32"
        },
        {
          "internalType": "string",
          "name": "_res",
          "type": "string"
        },
        {
          "internalType": "bool",
          "name": "_vote",
          "type": "bool"
        }
      ],
      "name": "rate",
      "outputs": [],
      "payable": false,
      "stateMutability": "nonpayable",
      "type": "function"
    },
    {
      "constant": true,
      "inputs": [
        {
          "internalType": "string",
          "name": "_resourceID",
          "type": "string"
        }
      ],
      "name": "getResourceInformation",
      "outputs": [
        {
          "internalType": "uint256",
          "name": "",
          "type": "uint256"
        },
        {
          "internalType": "uint256",
          "name": "",
          "type": "uint256"
        }
      ],
      "payable": false,
      "stateMutability": "view",
      "type": "function"
    },
    {
      "constant": true,
      "inputs": [],
      "name": "getNumberOfRatedResources",
      "outputs": [
        {
          "internalType": "uint256",
          "name": "",
          "type": "uint256"
        }
      ],
      "payable": false,
      "stateMutability": "view",
      "type": "function"
    },
    {
      "constant": true,
      "inputs": [
        {
          "internalType": "uint256",
          "name": "_index",
          "type": "uint256"
        }
      ],
      "name": "getRatedResource",
      "outputs": [
        {
          "internalType": "string",
          "name": "",
          "type": "string"
        }
      ],
      "payable": false,
      "stateMutability": "view",
      "type": "function"
    }
  ],
  "bytecode": "0x608060405234801561001057600080fd5b5061161b806100206000396000f3fe608060405234801561001057600080fd5b50600436106100935760003560e01c80632a7f70b2116100665780632a7f70b2146103c55780636177d9f6146104965780638e1d240b1461053d578063984ac5e014610613578063a51d0ebd146106f057610093565b80630c366ad0146100985780631a1d21001461016e5780631d76b81b1461024b578063244d6daa1461031e575b600080fd5b610151600480360360208110156100ae57600080fd5b81019080803590602001906401000000008111156100cb57600080fd5b8201836020820111156100dd57600080fd5b803590602001918460018302840111640100000000831117156100ff57600080fd5b91908080601f016020809104026020016040519081016040528093929190818152602001838380828437600081840152601f19601f82011690508083019250505050505050919291929050505061070e565b604051808381526020018281526020019250505060405180910390f35b6102316004803603604081101561018457600080fd5b8101908080359060200190929190803590602001906401000000008111156101ab57600080fd5b8201836020820111156101bd57600080fd5b803590602001918460018302840111640100000000831117156101df57600080fd5b91908080601f016020809104026020016040519081016040528093929190818152602001838380828437600081840152601f19601f820116905080830192505050505050509192919290505050610748565b604051808215151515815260200191505060405180910390f35b6103046004803603602081101561026157600080fd5b810190808035906020019064010000000081111561027e57600080fd5b82018360208201111561029057600080fd5b803590602001918460018302840111640100000000831117156102b257600080fd5b91908080601f016020809104026020016040519081016040528093929190818152602001838380828437600081840152601f19601f82011690508083019250505050505050919291929050505061078d565b604051808215151515815260200191505060405180910390f35b61034a6004803603602081101561033457600080fd5b81019080803590602001909291905050506107c3565b6040518080602001828103825283818151815260200191508051906020019080838360005b8381101561038a57808201518184015260208101905061036f565b50505050905090810190601f1680156103b75780820380516001836020036101000a031916815260200191505b509250505060405180910390f35b610494600480360360608110156103db57600080fd5b81019080803590602001909291908035906020019064010000000081111561040257600080fd5b82018360208201111561041457600080fd5b8035906020019184600183028401116401000000008311171561043657600080fd5b91908080601f016020809104026020016040519081016040528093929190818152602001838380828437600081840152601f19601f82011690508083019250505050505050919291929080351515906020019092919050505061087c565b005b6104c2600480360360208110156104ac57600080fd5b8101908080359060200190929190505050611351565b6040518080602001828103825283818151815260200191508051906020019080838360005b838110156105025780820151818401526020810190506104e7565b50505050905090810190601f16801561052f5780820380516001836020036101000a031916815260200191505b509250505060405180910390f35b6105f66004803603602081101561055357600080fd5b810190808035906020019064010000000081111561057057600080fd5b82018360208201111561058257600080fd5b803590602001918460018302840111640100000000831117156105a457600080fd5b91908080601f016020809104026020016040519081016040528093929190818152602001838380828437600081840152601f19601f82011690508083019250505050505050919291929050505061140a565b604051808381526020018281526020019250505060405180910390f35b6106d66004803603604081101561062957600080fd5b81019080803590602001909291908035906020019064010000000081111561065057600080fd5b82018360208201111561066257600080fd5b8035906020019184600183028401116401000000008311171561068457600080fd5b91908080601f016020809104026020016040519081016040528093929190818152602001838380828437600081840152601f19601f8201169050808301925050505050505091929192905050506114f0565b604051808215151515815260200191505060405180910390f35b6106f8611535565b6040518082815260200191505060405180910390f35b6001818051602081018201805184825260208301602085012081835280955050505050506000915090508060000154908060010154905082565b6004602052816000526040600020818051602081018201805184825260208301602085012081835280955050505050506000915091509054906101000a900460ff1681565b6002818051602081018201805184825260208301602085012081835280955050505050506000915054906101000a900460ff1681565b600081815481106107d057fe5b906000526020600020016000915090508054600181600116156101000203166002900480601f0160208091040260200160405190810160405280929190818152602001828054600181600116156101000203166002900480156108745780601f1061084957610100808354040283529160200191610874565b820191906000526020600020905b81548152906001019060200180831161085757829003601f168201915b505050505081565b6001151560046000858152602001908152602001600020836040518082805190602001908083835b602083106108c757805182526020820191506020810190506020830392506108a4565b6001836020036101000a038019825116818451168082178552505050505050905001915050908152602001604051809103902060009054906101000a900460ff1615151415610d6d576001151560036000858152602001908152602001600020836040518082805190602001908083835b6020831061095b5780518252602082019150602081019050602083039250610938565b6001836020036101000a038019825116818451168082178552505050505050905001915050908152602001604051809103902060009054906101000a900460ff1615151480156109af575060001515811515145b15610b3c57600060036000858152602001908152602001600020836040518082805190602001908083835b602083106109fd57805182526020820191506020810190506020830392506109da565b6001836020036101000a038019825116818451168082178552505050505050905001915050908152602001604051809103902060006101000a81548160ff021916908315150217905550600180836040518082805190602001908083835b60208310610a7e5780518252602082019150602081019050602083039250610a5b565b6001836020036101000a038019825116818451168082178552505050505050905001915050908152602001604051809103902060000160008282540392505081905550600180836040518082805190602001908083835b60208310610af85780518252602082019150602081019050602083039250610ad5565b6001836020036101000a0380198251168184511680821785525050505050509050019150509081526020016040518091039020600101600082825401925050819055505b6000151560036000858152602001908152602001600020836040518082805190602001908083835b60208310610b875780518252602082019150602081019050602083039250610b64565b6001836020036101000a038019825116818451168082178552505050505050905001915050908152602001604051809103902060009054906101000a900460ff161515148015610bdb575060011515811515145b15610d6857600160036000858152602001908152602001600020836040518082805190602001908083835b60208310610c295780518252602082019150602081019050602083039250610c06565b6001836020036101000a038019825116818451168082178552505050505050905001915050908152602001604051809103902060006101000a81548160ff021916908315150217905550600180836040518082805190602001908083835b60208310610caa5780518252602082019150602081019050602083039250610c87565b6001836020036101000a038019825116818451168082178552505050505050905001915050908152602001604051809103902060000160008282540192505081905550600180836040518082805190602001908083835b60208310610d245780518252602082019150602081019050602083039250610d01565b6001836020036101000a0380198251168184511680821785525050505050509050019150509081526020016040518091039020600101600082825403925050819055505b61134c565b600015156002836040518082805190602001908083835b60208310610da75780518252602082019150602081019050602083039250610d84565b6001836020036101000a038019825116818451168082178552505050505050905001915050908152602001604051809103902060009054906101000a900460ff16151514156111b05760016002836040518082805190602001908083835b60208310610e285780518252602082019150602081019050602083039250610e05565b6001836020036101000a038019825116818451168082178552505050505050905001915050908152602001604051809103902060006101000a81548160ff0219169083151502179055506000829080600181540180825580915050906001820390600052602060002001600090919290919091509080519060200190610eaf929190611541565b5050600160046000858152602001908152602001600020836040518082805190602001908083835b60208310610efa5780518252602082019150602081019050602083039250610ed7565b6001836020036101000a038019825116818451168082178552505050505050905001915050908152602001604051809103902060006101000a81548160ff0219169083151502179055506001151581151514156110805760405180604001604052806001815260200160008152506001836040518082805190602001908083835b60208310610f9e5780518252602082019150602081019050602083039250610f7b565b6001836020036101000a03801982511681845116808217855250505050505090500191505090815260200160405180910390206000820151816000015560208201518160010155905050600160036000858152602001908152602001600020836040518082805190602001908083835b60208310611031578051825260208201915060208101905060208303925061100e565b6001836020036101000a038019825116818451168082178552505050505050905001915050908152602001604051809103902060006101000a81548160ff0219169083151502179055506111ab565b60405180604001604052806000815260200160018152506001836040518082805190602001908083835b602083106110cd57805182526020820191506020810190506020830392506110aa565b6001836020036101000a03801982511681845116808217855250505050505090500191505090815260200160405180910390206000820151816000015560208201518160010155905050600060036000858152602001908152602001600020836040518082805190602001908083835b60208310611160578051825260208201915060208101905060208303925061113d565b6001836020036101000a038019825116818451168082178552505050505050905001915050908152602001604051809103902060006101000a81548160ff0219169083151502179055505b61134b565b600160046000858152602001908152602001600020836040518082805190602001908083835b602083106111f957805182526020820191506020810190506020830392506111d6565b6001836020036101000a038019825116818451168082178552505050505050905001915050908152602001604051809103902060006101000a81548160ff0219169083151502179055506001151581151514156112cf57600180836040518082805190602001908083835b602083106112875780518252602082019150602081019050602083039250611264565b6001836020036101000a03801982511681845116808217855250505050505090500191505090815260200160405180910390206000016000828254019250508190555061134a565b600180836040518082805190602001908083835b6020831061130657805182526020820191506020810190506020830392506112e3565b6001836020036101000a0380198251168184511680821785525050505050509050019150509081526020016040518091039020600101600082825401925050819055505b5b5b505050565b60606000828154811061136057fe5b906000526020600020018054600181600116156101000203166002900480601f0160208091040260200160405190810160405280929190818152602001828054600181600116156101000203166002900480156113fe5780601f106113d3576101008083540402835291602001916113fe565b820191906000526020600020905b8154815290600101906020018083116113e157829003601f168201915b50505050509050919050565b6000806001836040518082805190602001908083835b602083106114435780518252602082019150602081019050602083039250611420565b6001836020036101000a0380198251168184511680821785525050505050509050019150509081526020016040518091039020600001546001846040518082805190602001908083835b602083106114b0578051825260208201915060208101905060208303925061148d565b6001836020036101000a03801982511681845116808217855250505050505090500191505090815260200160405180910390206001015491509150915091565b6003602052816000526040600020818051602081018201805184825260208301602085012081835280955050505050506000915091509054906101000a900460ff1681565b60008080549050905090565b828054600181600116156101000203166002900490600052602060002090601f016020900481019282601f1061158257805160ff19168380011785556115b0565b828001600101855582156115b0579182015b828111156115af578251825591602001919060010190611594565b5b5090506115bd91906115c1565b5090565b6115e391905b808211156115df5760008160009055506001016115c7565b5090565b9056fea265627a7a72315820708c3fc74745a4808b2e624b3a529ff2666a1bdc0eee74f842b7623af30427f164736f6c63430005100032",
  "source": "pragma solidity 0.5.16;\r\n\r\ncontract Rating {\r\n    \r\n    struct resourceRating {\r\n        uint256 likes;\r\n        uint256 dislikes;\r\n    }\r\n\r\n    string[] public resources;\r\n    mapping(string => resourceRating) public resourcesInformation;\r\n    mapping(string => bool) public ratedResources;\r\n    mapping(bytes32 => mapping(string => bool)) public ratingsInformation;\r\n    mapping(bytes32 => mapping(string => bool)) public usersToResources;\r\n\r\n    function rate(\r\n        bytes32 _cred,\r\n        string memory _res,\r\n        bool _vote\r\n    ) public {\r\n        if (usersToResources[_cred][_res] == true) {\r\n            if (\r\n                ratingsInformation[_cred][_res] == true &&\r\n                _vote == false\r\n            ) {\r\n                ratingsInformation[_cred][_res] = false;\r\n                resourcesInformation[_res].likes -= 1;\r\n                resourcesInformation[_res].dislikes += 1;\r\n            }\r\n            if (\r\n                ratingsInformation[_cred][_res] == false &&\r\n                _vote == true\r\n            ) {\r\n                ratingsInformation[_cred][_res] = true;\r\n                resourcesInformation[_res].likes += 1;\r\n                resourcesInformation[_res].dislikes -= 1;\r\n            }\r\n        } else {\r\n            if (ratedResources[_res] == false) {\r\n                ratedResources[_res] = true;\r\n                resources.push(_res);\r\n                usersToResources[_cred][_res] = true;\r\n                if (_vote == true) {\r\n                    resourcesInformation[_res] = resourceRating(1, 0);\r\n                    ratingsInformation[_cred][_res] = true;\r\n                } else {\r\n                    resourcesInformation[_res] = resourceRating(0, 1);\r\n                    ratingsInformation[_cred][_res] = false;\r\n                }\r\n            } else {\r\n                usersToResources[_cred][_res] = true;\r\n                if (_vote == true) {\r\n                    resourcesInformation[_res].likes += 1;\r\n                } else {\r\n                    resourcesInformation[_res].dislikes += 1;\r\n                }\r\n            }\r\n        }\r\n    }\r\n\r\n    function getResourceInformation(string memory _resourceID)\r\n        public\r\n        view\r\n        returns (uint256, uint256)\r\n    {\r\n        return (\r\n            resourcesInformation[_resourceID].likes,\r\n            resourcesInformation[_resourceID].dislikes\r\n        );\r\n    }\r\n\r\n    function getNumberOfRatedResources() public view returns (uint256) {\r\n        return resources.length;\r\n    }\r\n\r\n    function getRatedResource(uint256 _index)\r\n        public\r\n        view\r\n        returns (string memory)\r\n    {\r\n        return resources[_index];\r\n    }\r\n}\r\n",
  "sourcePath": "E:\\DApp\\rating-dapp\\contracts\\Rating.sol",
  "compiler": {
    "name": "solc",
    "version": "0.5.16+commit.9c3226ce.Emscripten.clang"
  },
  "schemaVersion": "3.2.0",
  "updatedAt": "2021-04-01T09:39:03.900Z",
  "networkType": "ethereum",
  "devdoc": {
    "methods": {}
  },
  "userdoc": {
    "methods": {}
  }
}